:04000000DAEF0FF034
:10100000003738392F3435362A3132332D23303DED
:051010002B2569000022
:101016006C0E116E3AEC09F07E6E760E096E21ECBE
:101026000FF07E6E6C0E0B6E0E0E0C6E64EC0FF0F7
:101036007E6E000E7F6E760E096E7F0E0A6E59EC7E
:101046000CF07E6E7F50D8B42BEF08F02DEF08F031
:101056001CEF08F0030E436E8A0E426E560EE82E03
:10106600FED7422EFCD7432EFAD76C0E176E010E12
:10107600186E010E196E7FC01AF0A5EC11F07E6E87
:10108600760E096E610E0A6E59EC0CF07E6E61509A
:10109600D8B450EF08F052EF08F043EF08F0030E13
:1010A600436E8A0E426E560EE82EFED7422EFCD7AF
:1010B600432EFAD76C0E176E010E186E020E196EBD
:1010C60061C01AF0A5EC11F07E6E760E096E5E0E0A
:1010D6000A6E59EC0CF07E6E5E50D8B475EF08F0CF
:1010E60077EF08F068EF08F0030E436E8A0E426E43
:1010F600560EE82EFED7422EFCD7432EFAD76C0E9C
:10110600176E010E186E040E196E5EC01AF0A5EC6D
:1011160011F07E6E760E096E600E0A6E59EC0CF0BA
:101126007E6E6050D8B49AEF08F09CEF08F08DEF11
:1011360008F0030E436E8A0E426E560EE82EFED758
:10114600422EFCD7432EFAD76C0E176E010E186E80
:10115600060E196E60C01AF0A5EC11F07E6E760EC2
:10116600096E5F0E0A6E59EC0CF07E6E5F50D8B4B5
:10117600BFEF08F0C1EF08F0B2EF08F0030E436EC0
:101186008A0E426E560EE82EFED7422EFCD7432E0E
:10119600FAD76C0E176E010E186E070E196E5FC029
:1011A6001AF0A5EC11F07E6E760E096E5D0E0A6ED3
:1011B60059EC0CF07E6E5D50D8B4E4EF08F0E6EF23
:1011C60008F0D7EF08F0030E436E8A0E426E560EF5
:1011D600E82EFED7422EFCD7432EFAD76C0E176E9A
:1011E600010E186E090E196E5DC01AF0A5EC11F00D
:1011F6007E6E3D0E5D18D8A403EF09F005EF09F0E9
:1012060034EF09F017EF09F044EC11F034EF09F070
:10121600C6EC10F034EF09F0F2EC10F034EF09F000
:101226003BEC10F034EF09F05E50426E436A4350D7
:10123600000AD8B421EF09F034EF09F042502A0A27
:10124600D8B40FEF09F0010AD8B407EF09F0060A7F
:10125600D8B40BEF09F0020AD8B413EF09F034EF53
:1012660009F00BEC10F015EF08F000EF00F011504C
:10127600D8A440EF09F042EF09F046EF09F0000E5E
:10128600136E60EF0AF011C001F03EEC0BF0136E26
:1012960011C001F01150D96EDA6A000EDFBE010EE0
:1012A600026ED1EC0BF0136E1128016E3EEC0BF0C2
:1012B600136E1128016E1150D96EDA6A010ED92605
:1012C600000EDFBE010E026ED1EC0BF0136E115054
:1012D600020F016E3EEC0BF0136E1150030F016E00
:1012E6003EEC0BF0136E1150040F016E3EEC0BF04A
:1012F600136E1150050F016E3EEC0BF0136E11507C
:10130600060F016E3EEC0BF0136E1150070F016EC7
:101316003EEC0BF0136E1150080F016E3EEC0BF015
:10132600136E1150090F016E3EEC0BF0136E115047
:10133600020F016E1150D96EDA6A020ED926000E1E
:10134600DFBE010E026ED1EC0BF0136E1150030FCF
:10135600016E1150D96EDA6A030ED926000EDFBE71
:10136600010E026ED1EC0BF0136E1150040F016EDC
:101376001150D96EDA6A040ED926000EDFBE010EB0
:10138600026ED1EC0BF0136E1150050F016E115069
:10139600D96EDA6A050ED926000EDFBE010E026E80
:1013A600D1EC0BF0136E1150060F016E1150D96E71
:1013B600DA6A060ED926000EDFBE010E026ED1ECE9
:1013C6000BF0136E1150070F016E1150D96EDA6AC9
:1013D600070ED926000EDFBE010E026ED1EC0BF011
:1013E600136E1150080F016E1150D96EDA6A080E8D
:1013F600D926000EDFBE010E026ED1EC0BF0136E85
:101406001150090F016E1150D96EDA6A090ED926EC
:10141600000EDFBE010E026ED1EC0BF0136E340E21
:10142600126EF20EE82EFED7122EFCD711C00BF06C
:10143600380E0C6E64EC0FF00D0E126EFC0EE82EDC
:10144600FED7122EFCD711C00BF0380E0C6E64ECD2
:101456000FF0640EE82EFED711C00BF0380E0C6E9E
:1014660064EC0FF0136E11C00BF0010E0C6E64EC01
:101476000FF0136E11C00BF0020E0C6E64EC0FF041
:10148600136E11C00BF0060E0C6E64EC0FF0136EAB
:1014960011C00BF00C0E0C6E64EC0FF0136E11C045
:1014A6000BF0380E0C6E64EC0FF0136E11C00BF0DF
:1014B600800E0C6E64EC0FF0136E135012000C507D
:1014C600D96EDA6ADFCFF6FF100EF76E0800F55018
:1014D600250AD8A471EF0AF073EF0AF02CEF0BF08F
:1014E6000C50D96EDA6ADF2A000E456E000E446E85
:1014F60044C04AF0466847680C50D96EDA6ADF5035
:10150600106E10C0F6FF100EF76E0800F550640A54
:10151600D8B490EF0AF092EF0AF0A0EF0AF010C0EC
:10152600F6FF100EF76E0800F550690AD8A49EEF74
:101536000AF0A0EF0AF026EF0BF00D50D96EDA6A2A
:10154600020EDF26DF5CD96EDA6ADECF11F0DECF5F
:1015560012F00C50D96EDA6A1028DF6E200E156E66
:1015660012BEB8EF0AF0BBEF0AF0010EBCEF0AF0AC
:10157600000E0F6E15061550800FD96EDA6A11C06F
:1015860001F012C002F0000E046E0A0E036E82EC29
:101596000DF001C007F002C008F0DDEC11F00750B5
:1015A600300FDF6E11C001F012C002F0000E046EA3
:1015B6000A0E036EC8EC0CF001C011F002C012F066
:1015C60011501210D8B4EAEF0AF0ECEF0AF0F4EF7B
:1015D6000AF01550D8A4F2EF0AF0F4EF0AF0BDEFC6
:1015E6000AF01550D8B4FAEF0AF0FCEF0AF01BEF38
:1015F6000BF00F50D8B402EF0BF004EF0BF01BEF1B
:101606000BF015061550800FD96EDA6A2D0EDF6EB7
:101616001BEF0BF01550800FD96EDA6ADF500E6E95
:101626000E50016E026A0BC003F0DAEC0DF0152ABB
:10163600200E1518D8A422EF0BF024EF0BF00DEFB7
:101646000BF03DEF0BF00C50D96EDA6ADF2A3DEF56
:101656000BF00C50D96EDA6ADFCFF6FF100EF76E7C
:101666000800F550016E026A0BC003F0DAEC0DF0CB
:1016760026EF0BF01200010E076E0150D8B446EFAC
:101686000BF048EF0BF058EF0BF00150D96EDA6A09
:10169600DF30E832E832070B026E070E026456EFBF
:1016A6000BF058EF0BF0AFEF0BF0000E076ECFEF1D
:1016B6000BF00150D96EDA6ADF30E832E832070BF8
:1016C600026E010E036E022A6BEF0BF0D890033602
:1016D600022E69EF0BF00350FF0A046E0150D96E1B
:1016E600DA6ADF50070B020DF350CF0FD96EDA6AB4
:1016F600DECF05F0DDCF06F005C0D9FF06C0DAFF64
:101706000450DF16CFEF0BF00150D96EDA6ADF30E6
:10171600E832E832070B026E010E036E022A96EFDC
:101726000BF0D8900336022E94EF0BF00150D96ED1
:10173600DA6ADF50070B020DF350CF0FD96EDA6A63
:10174600DECF04F0DDCF05F004C0D9FF05C0DAFF17
:101756000350DF12CFEF0BF00150D96EDA6ADFBC0F
:10176600B7EF0BF0BAEF0BF0010EBBEF0BF0000E6C
:10177600026E036A0350000AD8B4C4EF0BF058EFA8
:101786000BF00250000AD8B45CEF0BF0010AD8B493
:1017960087EF0BF058EF0BF007501200010E086EA2
:1017A6000150D8B4D9EF0BF0DBEF0BF0EBEF0BF0F9
:1017B6000150D96EDA6ADF30E832E832070B036E81
:1017C600070E0364E9EF0BF0EBEF0BF042EF0CF0C2
:1017D600000E086E57EF0CF00150D96EDA6ADF3052
:1017E600E832E832070B036E010E046E032AFEEFA1
:1017F6000BF0D8900436032EFCEF0BF00450FF0AD2
:10180600056E0150D96EDA6ADF50070B020DF350F0
:10181600620FD96EDA6ADECF06F0DDCF07F006C0BA
:10182600D9FF07C0DAFF0550DF1657EF0CF001505D
:10183600D96EDA6ADF30E832E832070B036E010E42
:10184600046E032A29EF0CF0D8900436032E27EFF6
:101856000CF00150D96EDA6ADF50070B020DF35017
:10186600620FD96EDA6ADECF05F0DDCF06F005C06D
:10187600D9FF06C0DAFF0450DF1257EF0CF0025012
:10188600036E046A0450000AD8B44CEF0CF0EBEF78
:101896000BF00350000AD8B4EFEF0BF0010AD8B4EE
:1018A6001AEF0CF0EBEF0BF008501200000E0F6E63
:1018B600000E106E000E0E6E000E0D6E0950D8B49E
:1018C60067EF0CF069EF0CF071EF0CF00A50D8A43A
:1018D6006FEF0CF071EF0CF075EF0CF0000E0C6E64
:1018E600C6EF0CF0000E0F6E000E0E6E09500E24A1
:1018F600016E000E026ED1EC0BF00E2A030E0E6482
:1019060087EF0CF089EF0CF079EF0CF009500F24FB
:10191600016E010E026ED1EC0BF0000E106E095036
:101926001024040F016E0D0E026E2FEC0EF00D0446
:10193600D8A4A0EF0CF0A2EF0CF0B2EF0CF00F5011
:10194600040DF350010F10240B6E0BC0F6FF100EA2
:10195600F76E0A50D96EDA6A0800F5CFDFFF102A53
:10196600030E1064B9EF0CF0BBEF0CF092EF0CF025
:101976000F2A030E0F64C2EF0CF0C4EF0CF077EFE2
:101986000CF0010E0C6E0C501200000E066E04BE1A
:10199600D1EF0CF0CFEF0CF0D7EF0CF0036C041E78
:1019A600D8B0042A010E066E02BEDEEF0CF0DCEFA4
:1019B6000CF0E4EF0CF0016C021ED8B0022A010E06
:1019C600061A000E086E000E076E03500410D8B4F7
:1019D600EFEF0CF0F1EF0CF019EF0DF0010E056EC4
:1019E600F9EF0CF0D89003360436052A04AEFEEF64
:1019F6000CF000EF0DF0F5EF0CF0D8900736083636
:101A06000350015C04500258D8A00CEF0DF00EEF05
:101A16000DF013EF0DF00350015E0450025A0780DB
:101A2600D89004320332052E00EF0DF00650D8B4DC
:101A36001FEF0DF021EF0DF025EF0DF0076C081EDE
:101A4600D8B0082A07C001F008C002F01200010E43
:101A5600166E1150D8A432EF0DF034EF0DF038EFBA
:101A66000DF0000E166E80EF0DF0130663EF0DF00D
:101A760011C00BF01350800F0C6E64EC0FF0166E55
:101A860080EF0DF011C00BF01350C00F0C6E64EC1C
:101A96000FF0166E80EF0DF011C00BF01350940F7F
:101AA6000C6E64EC0FF0166E80EF0DF011C00BF0AB
:101AB6001350D40F0C6E64EC0FF0166E80EF0DF021
:101AC6001250146E156A1550000AD8B46DEF0DF059
:101AD60080EF0DF01450010AD8B43BEF0DF0030A65
:101AE600D8B445EF0DF0010AD8B44FEF0DF0070A50
:101AF600D8B459EF0DF080EF0DF016501200000E1D
:101B0600066E02BE8BEF0DF089EF0DF091EF0DF032
:101B1600016C021ED8B0022A010E066E04BE98EFB2
:101B26000DF096EF0DF09CEF0DF0036C041ED8B08F
:101B3600042A03500410D8B4A3EF0DF0A5EF0DF05E
:101B4600C9EF0DF0010E056EADEF0DF0D89003361E
:101B56000436052A04AEB2EF0DF0B4EF0DF0A9EF8E
:101B66000DF00350015C04500258D8A0BDEF0DF0F3
:101B7600BFEF0DF0C3EF0DF00350015E0450025AA3
:101B8600D89004320332052EB4EF0DF00650D8B4C7
:101B9600CFEF0DF0D1EF0DF0D5EF0DF0016C021E79
:101BA600D8B0022A01C001F002C002F012000350B0
:101BB600D8B4E0EF0DF0E2EF0DF0EAEF0DF00350D0
:101BC600D8A4E8EF0DF0EAEF0DF0EFEF0DF00150BD
:101BD6002FEC12F02EEF0EF00350D96EDA6A0A0ED1
:101BE600D926DE50DE10D8B4FBEF0DF0FDEF0DF078
:101BF60016EF0EF00350D96EDA6A0A0ED926035094
:101C0600E16EE26A030EE126DE50E65CE650800AEB
:101C1600086EDE50800A0858D8B014EF0EF016EFA2
:101C26000EF02EEF0EF00350D96EDA6A030ED926A7
:101C3600DF50046E0350D96EDA6ADF500424D96E81
:101C4600DA6A01C0DFFF0350D96EDA6A030ED926BD
:101C5600DE2A000EDD221200010E076E0150D8B4F6
:101C660037EF0EF039EF0EF051EF0EF00250D8B408
:101C76003FEF0EF041EF0EF051EF0EF00150D96E2E
:101C8600DA6ADF30E832E832070B036E070E0364C8
:101C96004FEF0EF051EF0EF055EF0EF0000E076EFF
:101CA6007FEF0EF00250D96EDA6A0150E16EE26AF9
:101CB600E730E832E832070B036E0150E16EE26A64
:101CC600E750070B020DF350C50FE16EE26AE6CF4F
:101CD60004F0E5CF05F004C0E1FF05C0E2FFE750E0
:101CE600066E032A79EF0EF0D8900632032E77EFB0
:101CF6000EF00650010BDF6E07501200010E3D6E0E
:101D060020EE32F00A0EDE6AE806FDE2000E3E6EB6
:101D16003150D8A491EF0EF093EF0EF097EF0EF03E
:101D2600000E3D6ED0EF0EF031C001F0000E036ED6
:101D3600200E026E000E056E0A0E046EF7EC11F010
:101D46003150D96EDA6A0A0ED926DF6A320E1A6E59
:101D5600110E1B6E2DC01CF02EC01DF02FC01EF0E4
:101D660030C01FF0C3EC11F0C4EF0EF03E50320F3E
:101D7600D96EDA6A31503E24E16EE26ADFCFE7FFC0
:101D86003E2A3E50320FD96EDA6ADF50D8A4CEEF23
:101D96000EF0D0EF0EF0B9EF0EF03D501200326E9D
:101DA600010E336E000E2E6E000E2F6E000E306E7C
:101DB600000E316E000E346E2D50D8A4E5EF0EF0F5
:101DC600E7EF0EF0EBEF0EF0000E336E1FEF0FF0A5
:101DD6002DC001F0000E036E200E026E000E056E81
:101DE600030E046EF7EC11F02D50D96EDA6A030E6D
:101DF600D926DF6A2E0E1A6E110E1B6E32C01CF02B
:101E06001D6AC3EC11F013EF0FF034502E0FD96E8C
:101E1600DA6A2D503424E16EE26ADFCFE7FF342A16
:101E260034502E0FD96EDA6ADF50D8A41DEF0FF0AA
:101E36001FEF0FF008EF0FF033501200000E0C6E7C
:101E4600000E0B6E0950D8A42BEF0FF02DEF0FF0FC
:101E560031EF0FF0000E0A6E62EF0FF0000E0C6EFF
:101E660009500C24016E3EEC0BF00A6E09500C244E
:101E7600016E09500C24D96EDA6A000EDFBE010E1F
:101E8600026ED1EC0BF00A6E0C2A030E0C644EEFB8
:101E96000FF050EF0FF033EF0FF0000E0B6E0950FE
:101EA6000B24040F016E3EEC0BF00A6E0B2A030E98
:101EB6000B6460EF0FF062EF0FF052EF0FF00A5075
:101EC6001200000E106E0B50D8A46CEF0FF06EEFE0
:101ED6000FF072EF0FF0000E0F6E9DEF0FF00BC0BC
:101EE60001F0000E026ED1EC0BF0000E106E0B50DE
:101EF6001024020F016E10C00DF00CC00EF00D2A5A
:101F060087EF0FF0D8900E320D2E85EF0FF00E50A2
:101F1600010B026ED1EC0BF0102A070E106496EF3F
:101F26000FF098EF0FF07AEF0FF00BC009F067ECA7
:101F360011F00F6E0F501200000E106E0B50D8A449
:101F4600A7EF0FF0A9EF0FF0ADEF0FF0000E0F6E39
:101F5600D8EF0FF00BC001F0010E026ED1EC0BF0C2
:101F6600000E106E0B501024020F016E10C00DF003
:101F76000CC00EF00D2AC2EF0FF0D8900E320D2EC7
:101F8600C0EF0FF00E50010B026ED1EC0BF0102AD1
:101F9600070E1064D1EF0FF0D3EF0FF0B5EF0FF08F
:101FA6000BC009F067EC11F00F6E0F5012001E0EF9
:101FB600F66E240EF76E000EF86E00EEB5F010EE1B
:101FC60024F00900F5CFEEFFE550E150FAE1420EAC
:101FD600F66E240EF76E000EF86E00EE62F010EE4E
:101FE6001CF00900F5CFEEFFE550E150FAE100EEF6
:101FF60080F0350EEE6AE806FDE100EE44F01E0EB6
:10200600EE6AE806FDE1000EF86E00010BEF08F03F
:10201600760E096E5C0E0A6E59EC0CF07E6E5C5004
:10202600D8B418EF10F01AEF10F00BEF10F0030E03
:10203600126E8A0E116E560EE82EFED7112EFCD7A2
:10204600122EFAD76C0E0B6E010E0C6E64EC0FF0AE
:102056007E6E000E7F6E000E5C6E000E616E000ED0
:10206600606E000E5F6E000E5D6E000E5E6E1200FC
:102076007F500A0DF3506124F00F406E60500A0D38
:10208600F3505F24F00F416E41C001F040506AECFE
:1020960010F03F6E3F50486E496A48C02DF049C067
:1020A6002EF0000E2EBEFF0E2F6E306E4E0E316ECF
:1020B60081EC0EF07E6E6C0E176E010E186E0B0E16
:1020C600196E4E0E1A6E1EEC11F07E6E1200026E26
:1020D600000E046E0150D8B473EF10F075EF10F0D7
:1020E60096EF10F0010E036E7CEF10F0D8900136DB
:1020F600032A01AE81EF10F083EF10F079EF10F0B4
:10210600D89004360150025CD8A08CEF10F08EEF08
:1021160010F091EF10F00150025E0480D890013269
:10212600032E83EF10F004501200010E136E1150AF
:10213600D8B4A0EF10F0A2EF10F0AAEF10F01250F2
:10214600D8A4A8EF10F0AAEF10F0B9EF10F0000E27
:10215600136EC4EF10F011C00BF01250D96EDA6A8C
:10216600DF500C6E9FEC0FF0136E122A1250D96ED0
:10217600DA6ADF50D8A4C2EF10F0C4EF10F0AEEF69
:1021860010F0135012007F500A0DF3506124F00F27
:102196003F6E60500A0DF3505F24F00F406E4050C2
:1021A6003F5C486E496AD8A0490648C02DF049C030
:1021B6002EF0000E2EBEFF0E2F6E306E4E0E316EBE
:1021C60081EC0EF07E6E6C0E176E010E186E0B0E05
:1021D600196E4E0E1A6E1EEC11F07E6E12007F50B6
:1021E6000A0DF3506124F00F3F6E60500A0DF35054
:1021F6005F24F00F406E3F504002F3CF48F0F4CF1B
:1022060049F048C02DF049C02EF0000E2EBEFF0E3C
:102216002F6E306E4E0E316E81EC0EF07E6E6C0EB1
:10222600176E010E186E0B0E196E4E0E1A6E1EEC00
:1022360011F07E6E12001750D8B424EF11F026EF7D
:1022460011F02EEF11F01A50D8A42CEF11F02EEF4A
:1022560011F032EF11F0000E1B6E42EF11F017C0B5
:1022660011F018C012F019C013F02AEC0DF01B6E15
:1022760017C011F01AC012F098EC10F01B6E1B502C
:1022860012007F500A0DF3506124F00F356E605036
:102296000A0DF3505F24F00F366E35503624486E23
:1022A600496A49364E0E2D6E4850D2EC0EF07E6EBF
:1022B6006C0E176E010E186E0B0E196E4E0E1A6E00
:1022C6001EEC11F07E6E12000950D8A46DEF11F0CD
:1022D6006FEF11F073EF11F0000E0A6E84EF11F03C
:1022E6000928016E010E026ED1EC0BF0030EE82EEA
:1022F600FED700000928016E000E026ED1EC0BF02D
:102306000A6E0A50120017C019F092EF11F016C0AB
:102316000BF0190E0C6E18C00DF062EC0AF019C025
:10232600F6FF100EF76E0800F5500009D8A49EEFD0
:1023360011F0A0EF11F08AEF11F0000E176E000EEB
:10234600166E12001750D8A4ABEF11F0ADEF11F0D6
:10235600B1EF11F0000E1B6EC1EF11F017C011F0B6
:1023660018C012F019C013F02AEC0DF01B6E17C03E
:102376000BF01AC00CF09FEC0FF01B6E1B501200F6
:102386001C0E206E1AC021F0000E256E000E246E63
:10239600000E2C6E000E2B6E210E166E1BC017F053
:1023A600200E186E86EC11F01A502424D96EDA6AC3
:1023B600DF6A120008BEE2EF11F0E4EF11F0EAEF77
:1023C60011F007C007F008C008F0F6EF11F007C0DB
:1023D60009F008C00AF0091E0A1E094A0A2A09C09D
:1023E60007F00AC008F0120001C006F001EF12F073
:1023F6000650D96EDA6A02C0DFFF062A0406D8A0A4
:102406000506042806E10528D8A40CEF12F00EEF05
:1024160012F0FBEF11F012003738392F3435362A17
:102426003132332D41303D2B800F810F820F830FC8
:10243600840F920F930F940F950F960F890F8A0FA3
:102446008B0F8C0F8D0F2830020A121A222A323A6D
:0A245600030B131B636B737B120072
:00000001FF
